:100000000A128A11252BFF1B0D2883137F188317D3
:100010000008840A0319FF0A080000308A00040857
:10002000840A820700340134003410340034003470
:1000300001340034103449343234433420345734DA
:100040007234693474346534203454346534733410
:1000500074342034533474346134723474340D3451
:100060000A340034303431343234333434343534B7
:1000700036343734383439344134423443344434F8
:10008000453446340034533465346E3474343A3471
:100090002034303478340034253430343234583419
:0200A00000342A
:10064A0083010A128A112F2C0A128A1157230A12BD
:10065A008A1183160313111408000A128A115723E8
:10066A000A128A118316031311150800F0003D2B94
:10067A00831203130C1E422B432B3D2B442B700871
:10068A00990008008316031387150716093093008B
:10069A0080309400283083120313940083160313C6
:1006AA0091010800592B592B8316031311081F397E
:1006BA00031D602B612B592B1419642B652B592BA5
:1006CA00662B0800F0000A128A1157230A128A11AF
:1006DA007008831203139300722B8C1D752B762BD3
:1006EA00722B8C110800F100F0013A3071020318E4
:1006FA007F2B802B8A2B30307102031C852B862B93
:10070A008A2BF0010314F00D8A2B700C8C2B080035
:10071A00F401F501902B701C932B942B9A2B7208E1
:10072A00F4070318F50A7308F50701300310F20DF0
:10073A00F30DFF3E031D9B2B01300310F10CF00C4F
:10074A00FF3E031DA22B71087004031DAD2BAE2BB7
:10075A00902BAF2B7508F101F1077408F001F0072F
:10076A00B62B0800CF2B720883120313FF007108FF
:10077A0084000A128A1103200A128A110A128A11A3
:10078A003B230A128A110130F1070318F20A0030DA
:10079A00F207CF2B720883120313FF00710884003B
:1007AA000A128A1103200A128A110038031DDE2B4D
:1007BA00DF2BB82BE02B0800F501F6017108700455
:1007CA000319E82BE92B272CF7010314F70DF92B52
:1007DA0001300310F00DF10DFF3E031DEE2B013029
:1007EA00F4007408F707F92BF11FFC2BFD2BED2BF6
:1007FA00FF2BFF2B01300310F50DF60DFF3E031DF5
:10080A00002C71087302031D0C2C70087202031C61
:10081A000F2C102C182C7008F2027108031CF30319
:10082A00F3027514182C01300310F10CF00CFF3E82
:10083A00031D192C0130F702031D242C252CFF2B34
:10084A00272C272C7608F101F1077508F001F0072B
:10085A002E2C0800553083120313B6003608BE004A
:10086A000030A9000030A8002530A7008030A6007B
:10087A000A128A1159250A128A110A128A11472361
:10088A000A128A110930F1008030F2000A128A1124
:10089A00B7230A128A11512C0A128A1129230A1221
:1008AA008A11A0300A128A1167230A128A1110309B
:1008BA000A128A1167230A128A11831203133E0845
:1008CA000A128A1167230A128A110A128A1132231A
:1008DA000A128A113130F1008030F2000A128A11AC
:1008EA00B7230A128A113A3083120313B600360864
:1008FA00F8003E08B700B8013708F9003808FA00CE
:10090A0039300A128A114B260A128A113930F1003B
:10091A000030F2000A128A11B7230A128A111D3016
:10092A00F1008030F2000A128A11B7230A128A11E2
:10093A00053083120313B8008830B7001430B600AC
:10094A00B60BA52CB70BA52CB80BA52CAC2C512C8F
:10095A00512C0A128A11002883120313A101F31FD2
:10096A00B72CB82CC72CF009F109F209F309F00ADF
:10097A000319F10A0319F20A0319F30AA10103146C
:10098A00A10DC72CF71FCA2CCB2CDB2CF409F509B7
:10099A00F609F709F40A0319F50A0319F60A0319FD
:1009AA00F70A0130F8007808A106DB2C0030A50010
:1009BA000030A4000030A3000030A20073087204C3
:1009CA00710470040319EA2CEB2C3F2DA0010314C7
:1009DA00A00DFD2C0130F8000310F00DF10DF20D01
:1009EA00F30DF80BF12C0130F8007808A007FD2C64
:1009FA00F31F002D012DEF2C032D032D0130F800DC
:100A0A000310A20DA30DA40DA50DF80B052D730857
:100A1A007702031D1A2D72087602031D1A2D71081A
:100A2A007502031D1A2D70087402031C1D2D1E2D3C
:100A3A002E2D7008F4027108031C710FF50272085A
:100A4A00031C720FF6027308031C730FF7022214B9
:100A5A002E2D01300310F30CF20CF10CF00CFF3EBA
:100A6A00031D2F2D0130A002031D3C2D3D2D032D0A
:100A7A003F2D3F2D2108031D432D4F2DA209A30908
:100A8A00A409A509A20A0319A30A0319A40A0319A6
:100A9A00A50A4F2D2508F3002408F2002308F100C7
:100AAA002208F000582D0800831203132608AA0012
:100ABA002708AB002808AC002908AD00063003104F
:100ACA00AA0DAB0DAC0DAD0DFF3E031D642D2D0817
:100ADA00F3002C08F2002B08F1002A08F00050302D
:100AEA00AE007930AF003630B0000030B1002608D1
:100AFA00B2002708B3002808B4002908B500063058
:100B0A000310B20DB30DB40DB50DFF3E031D852DB7
:100B1A00B209B309B409B509B20A0319B30A031928
:100B2A00B40A0319B50A3208AE0733080318330F9B
:100B3A009F2DA02DAF0734080318340FA52DA62D1D
:100B4A00B00735080318350AB1073108F70030082D
:100B5A00F6002F08F5002E08F4000A128A11B124B3
:100B6A000A128A117108FA01FA077008F901F907DD
:100B7A0001307A02003003197902031CC52DC62DF3
:100B8A002E2E831203132608AA002708AB00280872
:100B9A00AC002908AD0004300310AA0DAB0DAC0D52
:100BAA00AD0DFF3E031DD12D2D08F3002C08F200D8
:100BBA002B08F1002A08F0005030AE007930AF005F
:100BCA003630B0000030B1002608B2002708B30062
:100BDA002808B4002908B50004300310B20DB30D7B
:100BEA00B40DB50DFF3E031DF22DB209B309B409C8
:100BFA00B509B20A0319B30A0319B40A0319B50AE3
:100C0A003208AE0733080318330F0C2E0D2EAF0728
:100C1A0034080318340F122E132EB00735080318A0
:100C2A00350AB1073108F7003008F6002F08F50039
:100C3A002E08F4000A128A11B1240A128A117108C4
:100C4A00FA01FA077008F901F90783160313181550
:100C5A002E2E01307A020030031979020318362E3B
:100C6A00372E3C2E79088316031399003C2E8316DF
:100C7A000313181283120313981783160313071703
:100C8A008717981683120313181608008312031382
:100C9A00A7007930FB007B08A000E22F2A08253A3A
:100CAA000319582E592E652E2A08FB00270884009E
:100CBA007B08831380000130FB007B08A707E22F23
:100CCA00A801A901A101712E712E21150130FB0085
:100CDA007B08F807712E7E2E780884000A128A1182
:100CEA000D200A128A11303A03196A2E7E2E7E2EA0
:100CFA00712E780884000A128A110D200A128A11AC
:100D0A000A128A1178230A128A11031C8D2E8E2E3A
:100D1A00D82E83120313A801A901932E8312031359
:100D2A002908F101F1072808F001F0070A30F2005A
:100D3A000030F3000A128A118D230A128A117808E8
:100D4A0084000A128A110D200A128A117007FB0008
:100D5A000030031801307107FC007B08D03E831273
:100D6A000313A8007C080318013EFF3EA9000130C6
:100D7A00FB007B08F807780884000A128A110D2004
:100D8A000A128A110A128A1178230A128A1103187E
:100D9A00CF2ED02E932ED82ED82ED82EF82FEF2E37
:100DAA00EF2EE22FEF2E0130F807FF30780784008C
:100DBA000A128A110D200A128A1183120313AA0039
:100DCA00003A0319F82F583A0319EF2E203A03195B
:100DDA00EF2EE22F83120313200884000008A200DA
:100DEA00840A0008A3000230FB007B08A007AA01BE
:100DFA000314AA0D2A08043A031D042F052F072FEE
:100E0A002F2F2F2F2A08FB007B07013E84000A128E
:100E1A008A110D200A128A11FC000A128A110D2069
:100E2A000A128A11FD007D082302031D1E2F7C0869
:100E3A0022020318212F222F242F2F2F2F2F013088
:100E4A00FB007B08AA072A08043A031D2D2F2E2F20
:100E5A00072F2F2F2A08FB00FC01FB1BFC037C0831
:100E6A00803AFD002908803A7D02031D3E2F28089A
:100E7A007B020318412F422F502F831203132A0893
:100E8A00FB00FC01FB1BFC037B08A8027C08031C7B
:100E9A00A903A902552F83120313A801A901552FEB
:100EAA00211D582F592F7A2F2908280403195E2F3C
:100EBA005F2F9B2F602F3030FB00270884007B08B0
:100ECA00831380000130FB007B08A707FF30A807C7
:100EDA000318A90AFF30A90729082804031D762F39
:100EEA00772F602F9B2F9B2F9B2F290828040319EC
:100EFA007F2F802F9B2F812F2030FB002708840013
:100F0A007B08831380000130FB007B08A707FF30B2
:100F1A00A8070318A90AFF30A90729082804031DEE
:100F2A00972F982F812F9B2F9B2F9B2F2A08FB00EF
:100F3A007B08A600D62F2608FB007B07013E84000B
:100F4A000A128A110D200A128A11F0000A128A1155
:100F5A000D200A128A11F1002308F301F30722086F
:100F6A00F201F2070A128A11E1230A128A117008A1
:100F7A000F39203E84000A128A110D200A128A11A2
:100F8A00FC007C0883120313AA002A08FB00270826
:100F9A0084007B08831380000130FB007B08A707CD
:100FAA00D62FFF30FB007B08A6072608FF3A031D51
:100FBA00DF2FE02FA02FE22FE22F0130F807FF30BA
:100FCA00780784000A128A110D200A128A11FB007E
:100FDA007B0883120313AA00AA08031DF52FF62F14
:100FEA00532EF82FF82F8312031327088400831334
:060FFA008001FF2F08003A
:00000001FF
