:060000000A128A115029CA
:10029A004E294F29080083010A128A11C92BF0003E
:1002AA005629831203130C1E5B295C2956295D29E2
:1002BA007008990008002E30831603139900181548
:1002CA0018128312031398178316031398168312AE
:1002DA00031318160800F100F0013A3071020318EE
:1002EA0077297829822930307102031C7D297E29D9
:1002FA008229F0010314F00D8229700C8429080068
:10030A0083160313861183120313861106160A1223
:10031A008A114D210A128A11831603138611831238
:10032A00031386150A128A114D210A128A1108002E
:10033A0083160313861183120313861506160A12EF
:10034A008A114D210A128A11831603138611831208
:10035A000313861106120A128A114D210A128A11F2
:10036A0008008316031386158312031306160A124E
:10037A008A114D210A128A11003083120313861939
:10038A000130F0007008F10006120A128A114D219C
:10039A000A128A117108D1290800F0008316031382
:1003AA0086117018D929DD29831203138615E029CD
:1003BA0083120313861106160A128A114D210A1294
:1003CA008A118312031306120A128A114D210A1284
:1003DA008A110800F401F501F229701CF529F629A1
:1003EA00FC297208F4070318F50A7308F5070130A7
:1003FA000310F20DF30DFF3E031DFD29013003101A
:10040A00F10CF00CFF3E031D042A71087004031D51
:10041A000F2A102AF229112A7508F101F107740826
:10042A00F001F007182A0800F300F40108307402FA
:10043A00031C202A212A232A4B2A4B2A8316031318
:10044A008611F31B292A2D2A831203138615302AB3
:10045A0083120313861106160A128A114D210A12F3
:10046A008A118312031306120A128A114D210A12E3
:10047A008A110310F30D0130F2007208F4070830F4
:10048A007402031C492A4A2A232A4B2A0A128A116D
:10049A00B6210A128A11512A0800F200F3018316C2
:1004AA0003138615F40108307402031C5D2A5E2AC0
:1004BA00602A822A822A0310F30D83120313061676
:1004CA000A128A114D210A128A1183120313861DF8
:1004DA006F2A702A712A731406120A128A114D2180
:1004EA000A128A110130F1007108F4070830740207
:1004FA00031C802A812A602A822A72080A128A1117
:10050A00D2210A128A1173088A2A08007908780403
:10051A000319902A912AC72AFD010314FD0DA12A65
:10052A0001300310F80DF90DFF3E031D962A013024
:10053A00FC007C08FD07A12AF91FA42AA52A952AEE
:10054A00A72AA72A79087B02031DAD2A78087A020E
:10055A00031CB02AB12AB82A7808FA027908031CBF
:10056A00FB03FB02B82A01300310F90CF80CFF3E1A
:10057A00031DB92A0130FD02031DC42AC52AA72A70
:10058A00C72AC72A7B08F901F9077A08F801F80788
:10059A00CE2A0800F501F601710870040319D62A5B
:1005AA00D72A152BF7010314F70DE72A0130031098
:1005BA00F00DF10DFF3E031DDC2A0130F400740832
:1005CA00F707E72AF11FEA2AEB2ADB2AED2AED2AA6
:1005DA0001300310F50DF60DFF3E031DEE2A7108DA
:1005EA007302031DFA2A70087202031CFD2AFE2AEE
:1005FA00062B7008F2027108031CF303F302751448
:10060A00062B01300310F10CF00CFF3E031D072BE3
:10061A000130F702031D122B132BED2A152B152B74
:10062A007608F101F1077508F001F0071C2B0800A4
:10063A000A128A119D210A128A11A0300A128A11FD
:10064A0019220A128A11003A03192C2B2D2B2F2B4F
:10065A00672B672B76080A128A1119220A128A1145
:10066A00003A0319392B3A2B3C2B672B672B750859
:10067A000A128A1119220A128A11003A0319462B00
:10068A00472B492B672B672B77080A128A111922E5
:10069A000A128A11003A0319532B542B562B672B33
:1006AA00672B0A128A1185210A128A110630F9006B
:1006BA00CA30F800F80B5F2BF90B5F2B640000308F
:1006CA006E2B6E2B0A128A1185210A128A110130A9
:1006DA006E2B08000A128A119D210A128A11A03073
:1006EA000A128A1119220A128A11003A03197E2B58
:1006FA007F2B812BC12BC12B76080A128A11192252
:10070A000A128A11003A03198B2B8C2B8E2BC12BC0
:10071A00C12B75080A128A1119220A128A11003A83
:10072A000319982B992B9B2BC12BC12B0A128A11C7
:10073A009D210A128A11A1300A128A1119220A125B
:10074A008A11003A0319AA2BAB2BAD2BC12BC12B53
:10075A0001300A128A1152220A128A11F800770805
:10076A0084007808831380000A128A1185210A12EC
:10077A008A110030C82BC82B0A128A1185210A1245
:10078A008A110130C82B08008316031788018901D2
:10079A0083160313861106120A128A1160210A129D
:1007AA008A11243083120313A0008830A1000A1290
:1007BA008A1102250A128A114F3083120313A000EC
:1007CA008830A1000A128A1102250A128A1183129C
:1007DA000313BE010A303E02031CF42BF52BF72B40
:1007EA00542C542C3E08B300B4013308B800340822
:1007FA00B9003E08413EB3003308BC008F30A00068
:10080A008830A1003C08B300B4013308A2003408C0
:10081A00A3003908A501A5073808A401A4070A12EC
:10082A008A1102250A128A11831203133908F60162
:10083A00F6073808F501F5073C08B3003308F70056
:10084A000A128A111D230A128A110038031D2E2C3E
:10085A002F2C3B2C1E3083120313A0008930A100D9
:10086A000A128A1102250A128A11472C11308312A0
:10087A000313A0008930A1000A128A1102250A1264
:10088A008A11472C013083120313B3003308BE07C1
:10089A000A303E02031C522C532CF72B542CAA303C
:1008AA00A0008830A1000A128A1102250A128A11B0
:1008BA0083120313B701BF010A303F02031C662CDF
:1008CA00672C692CED2CED2C3F08B300B4013308DA
:1008DA00BA003408BB003F08413EB3003308BD00EC
:1008EA00C030A0008830A1003B08A301A3073A0842
:1008FA00A201A2070A128A1102250A128A11831278
:10090A0003133B08F601F6073A08F501F5074030EC
:10091A00B3003308F7000A128A116F230A128A11E8
:10092A000038031D992C9A2CD02C831203134008EB
:10093A003D060319A12CA22CA72C0030B500893042
:10094A00B600AC2C1830B5008930B600AC2CE430B7
:10095A00A0008830A1004008B300B4013308A20007
:10096A003408A3003608A501A5073508A401A40781
:10097A000A128A1102250A128A11831203134008E5
:10098A003D060319C92CCA2CE22C0130B3003308E6
:10099A00B707E22CE22CF43083120313A00088304C
:1009AA00A1000A128A1102250A128A110130831241
:1009BA000313B3003308B707E22C0130B30033083E
:1009CA00BF070A303F02031CEB2CEC2C692CED2CE0
:1009DA007130A0008830A1003708B300B401330891
:1009EA00A2003408A3000A128A1102250A128A11E7
:1009FA00FE2CFE2C0A128A110028223083120313BD
:100A0A00A6002608AA00E22F2E08253A03190E2D61
:100A1A000F2D162D2E080A128A1154210A128A1134
:100A2A00E22F83120313AC01AD01AB01262D262D53
:100A3A002B150130A0070318A10A0030A107262DA3
:100A4A00352D2108FF00200884000A128A1500208B
:100A5A000A128A11303A03191D2D352D352D262DEE
:100A6A002108FF00200884000A128A1500200A12B1
:100A7A008A110A128A1170210A128A11031C462D40
:100A8A00472D3F2E83120313AC01AD014C2D831267
:100A9A0003132D08F101F1072C08F001F0070A30C1
:100AAA00F2000030F3000A128A11EF210A128A11A9
:100ABA00831203132108FF00200884000A128A15F2
:100ACA0000200A128A117007A600003003180130AC
:100ADA007107A7002608D03EAC0027080318013E7C
:100AEA00FF3EAD000130A0070318A10A0030A1079C
:100AFA002108FF00200884000A128A1500200A1221
:100B0A008A110A128A1170210A128A1103188E2D6B
:100B1A008F2D4C2D3F2E3F2E3F2EFF2F8312031376
:100B2A00AB17662E2A08840083130008AF00840AD4
:100B3A000008B0000230A6002608AA0730082F04D1
:100B4A00031DA82DA92DAE2D0A30AF008930B000A3
:100B5A00AE2DB101B201B82D0130B1070318B20AA6
:100B6A000030B207B82D31082F0784003008031867
:100B7A00300AFF000A128A1500200A128A11003868
:100B8A00031DC82DC92DB12DCB2DCB2D2D08320219
:100B9A00031DD12D2C0831020318D42DD52DDC2D9F
:100BAA003108AC023208031CAD03AD02E72DAC01DB
:100BBA00AD01E72DE72D20300A128A1154210A12BD
:100BCA008A11E72DFF3083120313AC070318AD0A0D
:100BDA00FF30AD07FF302D06031DF52DFF302C0623
:100BEA00031DF82DF92DE02D122E122E3008FF00CC
:100BFA002F0884000A128A1500200A128A110A1282
:100C0A008A1154210A128A11013083120313AF0781
:100C1A000318B00A0030B007122E0130B1020030BA
:100C2A00031CB203B202FF303206031D1E2EFF3030
:100C3A003106031D212E222EFB2DE22FE22F2A0838
:100C4A00840083130008A6002608AE000230A6001E
:100C5A002608AA07302E2E30AF000030B00001302F
:100C6A00B1000030B200CB2DC030A6002608AB047C
:100C7A00662E662E831203132108A7002008A600F9
:100C8A000130A0070318A10A2708FF0026088400DC
:100C9A000A128A1500200A128A11AE00003A0319B4
:100CAA00FF2F583A0319932D3B3A0319242E103A71
:100CBA000319972D063A0319392E0D3A0319932D64
:100CCA00302E2A08840083130008AF00840A000823
:100CDA00B0000230A6002608AA07E42EAE010314CB
:100CEA00AE0D2E08053A031D7B2E7C2E7E2EED2E90
:100CFA00ED2E2E08A6002607123E8400883003181F
:100D0A00013EFF000A128A1500200A128A11A70062
:100D1A000A128A1500200A128A11A800280830022D
:100D2A00031D992E27082F0203189C2E9D2E9F2EF5
:100D3A00ED2EED2E0130A6002608AE072E08053A44
:100D4A00031DA82EA92E7E2EED2EED2EAE01031424
:100D5A00AE0D2E08043A031DB32EB42EB62EED2E78
:100D6A00ED2E2E08A60026071C3E840088300318A4
:100D7A00013EFF000A128A1500200A128A11A700F2
:100D8A000A128A1500200A128A11A80028083002BD
:100D9A00031DD12E27082F020318D42ED52ED72EA5
:100DAA00ED2EED2E0130A6002608AE072E08043AD5
:100DBA00031DE02EE12EB62EED2EED2EED2E2B0884
:100DCA00C039803A0319AB2E403A0319732EED2E1F
:100DDA002E08A600A701A61BA7032708803AA80089
:100DEA002D08803A2802031DFC2E2C08260203181F
:100DFA00FF2E002F0E2F831203132E08A600A70121
:100E0A00A61BA7032608AC022708031CAD03AD02E4
:100E1A00132F83120313AC01AD01132F2B1D162FB1
:100E2A00172F352F2D082C0403191C2F1D2F532F74
:100E3A001E2F30300A128A1154210A128A11FF30E9
:100E4A0083120313AC070318AD0AFF30AD072D0850
:100E5A002C04031D312F322F1E2F532F532F532FA4
:100E6A002D082C0403193A2F3B2F532F3C2F2030E7
:100E7A000A128A1154210A128A11FF3083120313AB
:100E8A00AC070318AD0AFF30AD072D082C04031D6B
:100E9A004F2F502F3C2F532F532F532F2E08A6007E
:100EAA002608A900D42FC42F0A30F8000030F90010
:100EBA002908A6002607123E840088300318013E3E
:100ECA00FF000A128A1500200A128A11F0000A127B
:100EDA008A1500200A128A11F1003008F301F3077B
:100EEA002F08F201F2070A128A11CF220A128A1176
:100EFA007108FB01FB077008FA01FA070A128A1146
:100F0A008B220A128A117808303E83120313A70033
:100F1A002708AE00CD2F2908A60026071C3E84000C
:100F2A0088300318013EFF000A128A1500200A12AF
:100F3A008A11F0000A128A1500200A128A11F10099
:100F4A003008F301F3072F08F201F2070A128A1197
:100F5A00CF220A128A1170080F39D33E84008830D2
:100F6A000318013E83120313FF000A128A15002098
:100F7A000A128A11A7002708AE00CD2FCD2F2B0801
:100F8A00C039803A0319902F403A0319592FCD2FAF
:100F9A002E080A128A1154210A128A11D42FFF30FC
:100FAA0083120313A6002608A9072908FF3A031D7E
:100FBA00DF2FE02FC42FE22FE22F83120313210821
:100FCA00A7002008A6000130A0070318A10A2708D5
:100FDA00FF00260884000A128A1500200A128A11C4
:100FEA00A8002808AE00AE08031DFC2FFD2F092D0E
:100FFA00FF2FFF2F0800FF1B0A2883137F18831770
:10100A000008840A0319FF0A08007F087F398A004A
:10101A000408840A0319FF0A8200013400340A34DE
:10102A00003464340034E83403341034273401348F
:10103A0000341034003400340134003410340D34D8
:10104A000A343D343D342034453445345034523426
:10105A004F344D342034543465347334743420346A
:10106A0040342034523442343334283453344434F0
:10107A00413429342C342034523442343434283420
:10108A00533443344C34293420343D343D340D3404
:10109A000A340034573472346934743469346E341F
:1010AA0067342034413496344A34203474346F34EB
:1010BA002034303478343034303430343034963468
:1010CA003034783430343034303439342E342E34A9
:1010DA002E340D340A3400340D340A345434653451
:1010EA0073347434203443346F346D3470346C3454
:1010FA006534743465342E34203445347234723491
:10110A006F34723473343A342034253475340D34E0
:10111A000A340034573472346934743469346E349E
:10112A006734203427342534633427342034743424
:10113A006F342034303478342534303434345834ED
:10114A002E342E342E34203400340D340A345634DE
:10115A006534723469346634793469346E34673488
:10116A00203464346134743461342E342E342E3491
:10117A000D340A34003452346534613464346934C9
:10118A006E3467342034303478342534303434348F
:10119A0058342E342E342E34203400343034313442
:1011AA0032343334343435343634373438343934E9
:1011BA0041344234433444344534463400344734A9
:1011CA006F3474342034273425346334273420347C
:1011DA0096342034253473340D340A3400345234AE
:1011EA0065346134643420344634613469346C348F
:1011FA000D340A3400344D34693473346D34613437
:10120A007434633468342134003428346E347534C9
:10121A006C346C34293400344634413449344C3407
:10122A000D340A3400344D34613474346334683410
:0C123A0000344F344B340D340A340034BF
:00000001FF
